{
  "_format": "hh-sol-artifact-1",
  "contractName": "Signing",
  "sourceName": "contracts/Signing.sol",
  "abi": [
    {
      "inputs": [
        {
          "internalType": "string",
          "name": "_message",
          "type": "string"
        }
      ],
      "name": "getMessageHash",
      "outputs": [
        {
          "internalType": "bytes32",
          "name": "",
          "type": "bytes32"
        }
      ],
      "stateMutability": "pure",
      "type": "function"
    },
    {
      "inputs": [
        {
          "internalType": "bytes32",
          "name": "_message",
          "type": "bytes32"
        }
      ],
      "name": "getSignedEthMessageHash",
      "outputs": [
        {
          "internalType": "bytes32",
          "name": "",
          "type": "bytes32"
        }
      ],
      "stateMutability": "pure",
      "type": "function"
    },
    {
      "inputs": [
        {
          "internalType": "bytes32",
          "name": "_ethSignedMessageHash",
          "type": "bytes32"
        },
        {
          "internalType": "bytes",
          "name": "_signature",
          "type": "bytes"
        }
      ],
      "name": "recoverSigner",
      "outputs": [
        {
          "internalType": "address",
          "name": "",
          "type": "address"
        }
      ],
      "stateMutability": "pure",
      "type": "function"
    },
    {
      "inputs": [
        {
          "internalType": "bytes",
          "name": "sig",
          "type": "bytes"
        }
      ],
      "name": "splitSignature",
      "outputs": [
        {
          "internalType": "bytes32",
          "name": "r",
          "type": "bytes32"
        },
        {
          "internalType": "bytes32",
          "name": "s",
          "type": "bytes32"
        },
        {
          "internalType": "uint8",
          "name": "v",
          "type": "uint8"
        }
      ],
      "stateMutability": "pure",
      "type": "function"
    },
    {
      "inputs": [
        {
          "internalType": "address",
          "name": "_sender",
          "type": "address"
        },
        {
          "internalType": "string",
          "name": "_message",
          "type": "string"
        },
        {
          "internalType": "bytes",
          "name": "hash",
          "type": "bytes"
        }
      ],
      "name": "verify",
      "outputs": [
        {
          "internalType": "bool",
          "name": "",
          "type": "bool"
        }
      ],
      "stateMutability": "pure",
      "type": "function"
    }
  ],
  "bytecode": "0x608060405234801561001057600080fd5b50610a08806100206000396000f3fe608060405234801561001057600080fd5b50600436106100575760003560e01c80632dd34f0f1461005c57806382df657d1461008c57806397aba7f9146100bc578063a7bb5803146100ec578063b446f3b21461011e575b600080fd5b6100766004803603810190610071919061053c565b61014e565b60405161008391906105e2565b60405180910390f35b6100a660048036038101906100a19190610633565b6101ac565b6040516100b3919061066f565b60405180910390f35b6100d660048036038101906100d1919061068a565b6101dc565b6040516100e391906106f5565b60405180910390f35b61010660048036038101906101019190610710565b61024b565b60405161011593929190610775565b60405180910390f35b610138600480360381019061013391906107ac565b6102b3565b604051610145919061066f565b60405180910390f35b60008061015a846102b3565b90506000610167826101ac565b90508573ffffffffffffffffffffffffffffffffffffffff1661018a82866101dc565b73ffffffffffffffffffffffffffffffffffffffff1614925050509392505050565b6000816040516020016101bf919061086d565b604051602081830303815290604052805190602001209050919050565b6000806000806101eb8561024b565b925092509250600186828585604051600081526020016040526040516102149493929190610893565b6020604051602081039080840390855afa158015610236573d6000803e3d6000fd5b50505060206040510351935050505092915050565b60008060006041845114610294576040517f08c379a000000000000000000000000000000000000000000000000000000000815260040161028b90610935565b60405180910390fd5b6020840151925060408401519150606084015160001a90509193909250565b6000816040516020016102c691906109bb565b604051602081830303815290604052805190602001209050919050565b6000604051905090565b600080fd5b600080fd5b600073ffffffffffffffffffffffffffffffffffffffff82169050919050565b6000610322826102f7565b9050919050565b61033281610317565b811461033d57600080fd5b50565b60008135905061034f81610329565b92915050565b600080fd5b600080fd5b6000601f19601f8301169050919050565b7f4e487b7100000000000000000000000000000000000000000000000000000000600052604160045260246000fd5b6103a88261035f565b810181811067ffffffffffffffff821117156103c7576103c6610370565b5b80604052505050565b60006103da6102e3565b90506103e6828261039f565b919050565b600067ffffffffffffffff82111561040657610405610370565b5b61040f8261035f565b9050602081019050919050565b82818337600083830152505050565b600061043e610439846103eb565b6103d0565b90508281526020810184848401111561045a5761045961035a565b5b61046584828561041c565b509392505050565b600082601f83011261048257610481610355565b5b813561049284826020860161042b565b91505092915050565b600067ffffffffffffffff8211156104b6576104b5610370565b5b6104bf8261035f565b9050602081019050919050565b60006104df6104da8461049b565b6103d0565b9050828152602081018484840111156104fb576104fa61035a565b5b61050684828561041c565b509392505050565b600082601f83011261052357610522610355565b5b81356105338482602086016104cc565b91505092915050565b600080600060608486031215610555576105546102ed565b5b600061056386828701610340565b935050602084013567ffffffffffffffff811115610584576105836102f2565b5b6105908682870161046d565b925050604084013567ffffffffffffffff8111156105b1576105b06102f2565b5b6105bd8682870161050e565b9150509250925092565b60008115159050919050565b6105dc816105c7565b82525050565b60006020820190506105f760008301846105d3565b92915050565b6000819050919050565b610610816105fd565b811461061b57600080fd5b50565b60008135905061062d81610607565b92915050565b600060208284031215610649576106486102ed565b5b60006106578482850161061e565b91505092915050565b610669816105fd565b82525050565b60006020820190506106846000830184610660565b92915050565b600080604083850312156106a1576106a06102ed565b5b60006106af8582860161061e565b925050602083013567ffffffffffffffff8111156106d0576106cf6102f2565b5b6106dc8582860161050e565b9150509250929050565b6106ef81610317565b82525050565b600060208201905061070a60008301846106e6565b92915050565b600060208284031215610726576107256102ed565b5b600082013567ffffffffffffffff811115610744576107436102f2565b5b6107508482850161050e565b91505092915050565b600060ff82169050919050565b61076f81610759565b82525050565b600060608201905061078a6000830186610660565b6107976020830185610660565b6107a46040830184610766565b949350505050565b6000602082840312156107c2576107c16102ed565b5b600082013567ffffffffffffffff8111156107e0576107df6102f2565b5b6107ec8482850161046d565b91505092915050565b600081905092915050565b7f19457468657265756d205369676e6564204d6573736167653a0a333200000000600082015250565b6000610836601c836107f5565b915061084182610800565b601c82019050919050565b6000819050919050565b610867610862826105fd565b61084c565b82525050565b600061087882610829565b91506108848284610856565b60208201915081905092915050565b60006080820190506108a86000830187610660565b6108b56020830186610766565b6108c26040830185610660565b6108cf6060830184610660565b95945050505050565b600082825260208201905092915050565b7f696e76616c6964207369676e6174757265206c656e6774680000000000000000600082015250565b600061091f6018836108d8565b915061092a826108e9565b602082019050919050565b6000602082019050818103600083015261094e81610912565b9050919050565b600081519050919050565b60005b8381101561097e578082015181840152602081019050610963565b60008484015250505050565b600061099582610955565b61099f81856107f5565b93506109af818560208601610960565b80840191505092915050565b60006109c7828461098a565b91508190509291505056fea2646970667358221220bf258f24f24aeeca80722adaaf2d43d78f0bc4dc2b15bc6424c9b622ab2fb47a64736f6c63430008110033",
  "linkReferences": {},
  "deployedLinkReferences": {}
}